{
  "_format": "hh-sol-artifact-1",
  "contractName": "Crowdfunding",
  "sourceName": "contracts/Crowdfunding.sol",
  "abi": [
    {
      "anonymous": false,
      "inputs": [
        {
          "indexed": false,
          "internalType": "address",
          "name": "projectAddress",
          "type": "address"
        },
        {
          "indexed": false,
          "internalType": "uint256",
          "name": "contributedAmount",
          "type": "uint256"
        },
        {
          "indexed": true,
          "internalType": "address",
          "name": "contributor",
          "type": "address"
        }
      ],
      "name": "ContributionReceived",
      "type": "event"
    },
    {
      "anonymous": false,
      "inputs": [
        {
          "indexed": false,
          "internalType": "address",
          "name": "projectContractAddress",
          "type": "address"
        },
        {
          "indexed": false,
          "internalType": "address",
          "name": "creator",
          "type": "address"
        },
        {
          "indexed": false,
          "internalType": "uint256",
          "name": "minContribution",
          "type": "uint256"
        },
        {
          "indexed": false,
          "internalType": "uint256",
          "name": "projectDeadline",
          "type": "uint256"
        },
        {
          "indexed": false,
          "internalType": "uint256",
          "name": "goalAmount",
          "type": "uint256"
        },
        {
          "indexed": false,
          "internalType": "uint256",
          "name": "currentAmount",
          "type": "uint256"
        },
        {
          "indexed": false,
          "internalType": "uint256",
          "name": "noOfContributors",
          "type": "uint256"
        },
        {
          "indexed": false,
          "internalType": "string",
          "name": "title",
          "type": "string"
        },
        {
          "indexed": false,
          "internalType": "string",
          "name": "desc",
          "type": "string"
        },
        {
          "indexed": false,
          "internalType": "uint256",
          "name": "currentState",
          "type": "uint256"
        },
        {
          "indexed": false,
          "internalType": "string",
          "name": "imageHash",
          "type": "string"
        }
      ],
      "name": "ProjectStarted",
      "type": "event"
    },
    {
      "inputs": [
        {
          "internalType": "address",
          "name": "_projectAddress",
          "type": "address"
        }
      ],
      "name": "contribute",
      "outputs": [],
      "stateMutability": "payable",
      "type": "function"
    },
    {
      "inputs": [
        {
          "internalType": "uint256",
          "name": "minimumContribution",
          "type": "uint256"
        },
        {
          "internalType": "uint256",
          "name": "deadline",
          "type": "uint256"
        },
        {
          "internalType": "uint256",
          "name": "targetContribution",
          "type": "uint256"
        },
        {
          "internalType": "string",
          "name": "projectTitle",
          "type": "string"
        },
        {
          "internalType": "string",
          "name": "projectDesc",
          "type": "string"
        },
        {
          "internalType": "string",
          "name": "imageHash",
          "type": "string"
        }
      ],
      "name": "createProject",
      "outputs": [],
      "stateMutability": "nonpayable",
      "type": "function"
    },
    {
      "inputs": [],
      "name": "returnAllProjects",
      "outputs": [
        {
          "internalType": "contract Project[]",
          "name": "",
          "type": "address[]"
        }
      ],
      "stateMutability": "view",
      "type": "function"
    }
  ],
  "bytecode": "0x608060405234801561001057600080fd5b50614237806100206000396000f3fe608060405260043610620000385760003560e01c806315da81a5146200003d57806373e888fd146200006b57806385b6e28e146200008b575b600080fd5b3480156200004a57600080fd5b50620000696004803603810190620000639190620007c3565b620000bb565b005b62000089600480360381019062000083919062000921565b620002eb565b005b3480156200009857600080fd5b50620000a362000574565b604051620000b2919062000a7b565b60405180910390f35b84421062000100576040517f08c379a0000000000000000000000000000000000000000000000000000000008152600401620000f79062000b26565b60405180910390fd5b600160003373ffffffffffffffffffffffffffffffffffffffff1673ffffffffffffffffffffffffffffffffffffffff16815260200190815260200160002060009054906101000a900460ff161562000190576040517f08c379a0000000000000000000000000000000000000000000000000000000008152600401620001879062000b98565b60405180910390fd5b600033878787878787604051620001a79062000604565b620001b9979695949392919062000c5e565b604051809103906000f080158015620001d6573d6000803e3d6000fd5b5090506000819080600181540180825580915050600190039060005260206000200160009091909190916101000a81548173ffffffffffffffffffffffffffffffffffffffff021916908373ffffffffffffffffffffffffffffffffffffffff16021790555060018060003373ffffffffffffffffffffffffffffffffffffffff1673ffffffffffffffffffffffffffffffffffffffff16815260200190815260200160002060006101000a81548160ff0219169083151502179055507f95a8c58bc7577c7c58d59d52948c7685403775a4be73b04917c675ce1215dc2a81338989896000808b8b60008c604051620002da9b9a9998979695949392919062000d33565b60405180910390a150505050505050565b60008173ffffffffffffffffffffffffffffffffffffffff1663937e09b16040518163ffffffff1660e01b815260040160206040518083038186803b1580156200033457600080fd5b505afa15801562000349573d6000803e3d6000fd5b505050506040513d601f19601f820116820180604052508101906200036f919062000e20565b905060008273ffffffffffffffffffffffffffffffffffffffff1663c19d93fb6040518163ffffffff1660e01b815260040160206040518083038186803b158015620003ba57600080fd5b505afa158015620003cf573d6000803e3d6000fd5b505050506040513d601f19601f82011682018060405250810190620003f5919062000e7a565b9050600060028111156200040e576200040d62000eac565b5b81600281111562000424576200042362000eac565b5b1462000467576040517f08c379a00000000000000000000000000000000000000000000000000000000081526004016200045e9062000f2b565b60405180910390fd5b81341015620004ad576040517f08c379a0000000000000000000000000000000000000000000000000000000008152600401620004a49062000f9d565b60405180910390fd5b8273ffffffffffffffffffffffffffffffffffffffff166373e888fd34336040518363ffffffff1660e01b8152600401620004e9919062000fbf565b6000604051808303818588803b1580156200050357600080fd5b505af115801562000518573d6000803e3d6000fd5b50505050503373ffffffffffffffffffffffffffffffffffffffff167f0829c5c9dc5d14e41b11cfca0f01f76eba69b648ddcf9f84afba16ba8a76bf1c84346040516200056792919062000fdc565b60405180910390a2505050565b60606000805480602002602001604051908101604052809291908181526020018280548015620005fa57602002820191906000526020600020905b8160009054906101000a900473ffffffffffffffffffffffffffffffffffffffff1673ffffffffffffffffffffffffffffffffffffffff1681526020019060010190808311620005af575b5050505050905090565b6131f8806200100a83390190565b6000604051905090565b600080fd5b600080fd5b6000819050919050565b6200063b8162000626565b81146200064757600080fd5b50565b6000813590506200065b8162000630565b92915050565b600080fd5b600080fd5b6000601f19601f8301169050919050565b7f4e487b7100000000000000000000000000000000000000000000000000000000600052604160045260246000fd5b620006b6826200066b565b810181811067ffffffffffffffff82111715620006d857620006d76200067c565b5b80604052505050565b6000620006ed62000612565b9050620006fb8282620006ab565b919050565b600067ffffffffffffffff8211156200071e576200071d6200067c565b5b62000729826200066b565b9050602081019050919050565b82818337600083830152505050565b60006200075c620007568462000700565b620006e1565b9050828152602081018484840111156200077b576200077a62000666565b5b6200078884828562000736565b509392505050565b600082601f830112620007a857620007a762000661565b5b8135620007ba84826020860162000745565b91505092915050565b60008060008060008060c08789031215620007e357620007e26200061c565b5b6000620007f389828a016200064a565b96505060206200080689828a016200064a565b95505060406200081989828a016200064a565b945050606087013567ffffffffffffffff8111156200083d576200083c62000621565b5b6200084b89828a0162000790565b935050608087013567ffffffffffffffff8111156200086f576200086e62000621565b5b6200087d89828a0162000790565b92505060a087013567ffffffffffffffff811115620008a157620008a062000621565b5b620008af89828a0162000790565b9150509295509295509295565b600073ffffffffffffffffffffffffffffffffffffffff82169050919050565b6000620008e982620008bc565b9050919050565b620008fb81620008dc565b81146200090757600080fd5b50565b6000813590506200091b81620008f0565b92915050565b6000602082840312156200093a57620009396200061c565b5b60006200094a848285016200090a565b91505092915050565b600081519050919050565b600082825260208201905092915050565b6000819050602082019050919050565b6000819050919050565b6000620009aa620009a46200099e84620008bc565b6200097f565b620008bc565b9050919050565b6000620009be8262000989565b9050919050565b6000620009d282620009b1565b9050919050565b620009e481620009c5565b82525050565b6000620009f88383620009d9565b60208301905092915050565b6000602082019050919050565b600062000a1e8262000953565b62000a2a81856200095e565b935062000a37836200096f565b8060005b8381101562000a6e57815162000a528882620009ea565b975062000a5f8362000a04565b92505060018101905062000a3b565b5085935050505092915050565b6000602082019050818103600083015262000a97818462000a11565b905092915050565b600082825260208201905092915050565b7f5374617465206f6620746869732070726f6a656374206973206578706972656460008201527f2100000000000000000000000000000000000000000000000000000000000000602082015250565b600062000b0e60218362000a9f565b915062000b1b8262000ab0565b604082019050919050565b6000602082019050818103600083015262000b418162000aff565b9050919050565b7f596f75206861766520612050726f6a6563742068657265210000000000000000600082015250565b600062000b8060188362000a9f565b915062000b8d8262000b48565b602082019050919050565b6000602082019050818103600083015262000bb38162000b71565b9050919050565b62000bc581620008dc565b82525050565b62000bd68162000626565b82525050565b600081519050919050565b60005b8381101562000c0757808201518184015260208101905062000bea565b8381111562000c17576000848401525b50505050565b600062000c2a8262000bdc565b62000c36818562000a9f565b935062000c4881856020860162000be7565b62000c53816200066b565b840191505092915050565b600060e08201905062000c75600083018a62000bba565b62000c84602083018962000bcb565b62000c93604083018862000bcb565b62000ca2606083018762000bcb565b818103608083015262000cb6818662000c1d565b905081810360a083015262000ccc818562000c1d565b905081810360c083015262000ce2818462000c1d565b905098975050505050505050565b6000819050919050565b600062000d1b62000d1562000d0f8462000cf0565b6200097f565b62000626565b9050919050565b62000d2d8162000cfa565b82525050565b60006101608201905062000d4b600083018e62000bba565b62000d5a602083018d62000bba565b62000d69604083018c62000bcb565b62000d78606083018b62000bcb565b62000d87608083018a62000bcb565b62000d9660a083018962000d22565b62000da560c083018862000d22565b81810360e083015262000db9818762000c1d565b905081810361010083015262000dd0818662000c1d565b905062000de261012083018562000d22565b81810361014083015262000df7818462000c1d565b90509c9b505050505050505050505050565b60008151905062000e1a8162000630565b92915050565b60006020828403121562000e395762000e386200061c565b5b600062000e498482850162000e09565b91505092915050565b6003811062000e6057600080fd5b50565b60008151905062000e748162000e52565b92915050565b60006020828403121562000e935762000e926200061c565b5b600062000ea38482850162000e63565b91505092915050565b7f4e487b7100000000000000000000000000000000000000000000000000000000600052602160045260246000fd5b7f496e76616c696420737461746500000000000000000000000000000000000000600082015250565b600062000f13600d8362000a9f565b915062000f208262000edb565b602082019050919050565b6000602082019050818103600083015262000f468162000f04565b9050919050565b7f436f6e747269627574696f6e20616d6f756e7420697320746f6f206c6f772021600082015250565b600062000f8560208362000a9f565b915062000f928262000f4d565b602082019050919050565b6000602082019050818103600083015262000fb88162000f76565b9050919050565b600060208201905062000fd6600083018462000bba565b92915050565b600060408201905062000ff3600083018562000bba565b62001002602083018462000bcb565b939250505056fe60806040526000600a60006101000a81548160ff021916908360028111156200002d576200002c620001cf565b5b02179055506000600d553480156200004457600080fd5b50604051620031f8380380620031f883398181016040528101906200006a91906200043b565b866000806101000a81548173ffffffffffffffffffffffffffffffffffffffff021916908373ffffffffffffffffffffffffffffffffffffffff1602179055508560018190555084600281905550836003819055508260079080519060200190620000d79291906200011f565b508160089080519060200190620000f09291906200011f565b5060006005819055508060099080519060200190620001119291906200011f565b5050505050505050620005b0565b8280546200012d906200057a565b90600052602060002090601f0160209004810192826200015157600085556200019d565b82601f106200016c57805160ff19168380011785556200019d565b828001600101855582156200019d579182015b828111156200019c5782518255916020019190600101906200017f565b5b509050620001ac9190620001b0565b5090565b5b80821115620001cb576000816000905550600101620001b1565b5090565b7f4e487b7100000000000000000000000000000000000000000000000000000000600052602160045260246000fd5b6000604051905090565b600080fd5b600080fd5b600073ffffffffffffffffffffffffffffffffffffffff82169050919050565b60006200023f8262000212565b9050919050565b620002518162000232565b81146200025d57600080fd5b50565b600081519050620002718162000246565b92915050565b6000819050919050565b6200028c8162000277565b81146200029857600080fd5b50565b600081519050620002ac8162000281565b92915050565b600080fd5b600080fd5b6000601f19601f8301169050919050565b7f4e487b7100000000000000000000000000000000000000000000000000000000600052604160045260246000fd5b6200030782620002bc565b810181811067ffffffffffffffff82111715620003295762000328620002cd565b5b80604052505050565b60006200033e620001fe565b90506200034c8282620002fc565b919050565b600067ffffffffffffffff8211156200036f576200036e620002cd565b5b6200037a82620002bc565b9050602081019050919050565b60005b83811015620003a75780820151818401526020810190506200038a565b83811115620003b7576000848401525b50505050565b6000620003d4620003ce8462000351565b62000332565b905082815260208101848484011115620003f357620003f2620002b7565b5b6200040084828562000387565b509392505050565b600082601f83011262000420576200041f620002b2565b5b815162000432848260208601620003bd565b91505092915050565b600080600080600080600060e0888a0312156200045d576200045c62000208565b5b60006200046d8a828b0162000260565b9750506020620004808a828b016200029b565b9650506040620004938a828b016200029b565b9550506060620004a68a828b016200029b565b945050608088015167ffffffffffffffff811115620004ca57620004c96200020d565b5b620004d88a828b0162000408565b93505060a088015167ffffffffffffffff811115620004fc57620004fb6200020d565b5b6200050a8a828b0162000408565b92505060c088015167ffffffffffffffff8111156200052e576200052d6200020d565b5b6200053c8a828b0162000408565b91505092959891949750929550565b7f4e487b7100000000000000000000000000000000000000000000000000000000600052602260045260246000fd5b600060028204905060018216806200059357607f821691505b60208210811415620005aa57620005a96200054b565b5b50919050565b612c3880620005c06000396000f3fe6080604052600436106101355760003560e01c8063752e19f9116100ab578063b82c86d61161006f578063b82c86d6146103fe578063c19d93fb14610429578063c3e20c9f14610454578063c59ee1dc1461047f578063d5cef133146104aa578063ff3a9c7e146104d557610135565b8063752e19f914610315578063937e09b11461033e578063992a7dfb14610369578063a46752ae146103aa578063b40141bf146103d357610135565b80633e1c1e0e116100fd5780633e1c1e0e146102245780634c4cea5a1461024f5780634e695a371461027a57806351605d80146102a35780636f9fb98a146102ce57806373e888fd146102f957610135565b806302d05d3f1461013a57806303c29d58146101655780630a7713701461019057806324274ee9146101ce57806329dcb0cf146101f9575b600080fd5b34801561014657600080fd5b5061014f61050a565b60405161015c9190611c0a565b60405180910390f35b34801561017157600080fd5b5061017a61052e565b6040516101879190611cbe565b60405180910390f35b34801561019c57600080fd5b506101b760048036038101906101b29190611d32565b6105bc565b6040516101c5929190611d87565b60405180910390f35b3480156101da57600080fd5b506101e3610600565b6040516101f09190611db0565b60405180910390f35b34801561020557600080fd5b5061020e610606565b60405161021b9190611db0565b60405180910390f35b34801561023057600080fd5b5061023961060c565b6040516102469190611ec7565b60405180910390f35b34801561025b57600080fd5b506102646106cb565b6040516102719190611db0565b60405180910390f35b34801561028657600080fd5b506102a1600480360381019061029c9190611f15565b6106d1565b005b3480156102af57600080fd5b506102b86108b9565b6040516102c59190611cbe565b60405180910390f35b3480156102da57600080fd5b506102e3610947565b6040516102f09190611db0565b60405180910390f35b610313600480360381019061030e9190611d32565b61094f565b005b34801561032157600080fd5b5061033c60048036038101906103379190611f15565b610e86565b005b34801561034a57600080fd5b50610353611195565b6040516103609190611db0565b60405180910390f35b34801561037557600080fd5b50610390600480360381019061038b9190611f15565b61119b565b6040516103a1959493929190611f5d565b60405180910390f35b3480156103b657600080fd5b506103d160048036038101906103cc9190612118565b611286565b005b3480156103df57600080fd5b506103e86114d7565b6040516103f59190611db0565b60405180910390f35b34801561040a57600080fd5b506104136114dd565b6040516104209190611db0565b60405180910390f35b34801561043557600080fd5b5061043e6114e3565b60405161044b91906121fe565b60405180910390f35b34801561046057600080fd5b506104696114f6565b6040516104769190611cbe565b60405180910390f35b34801561048b57600080fd5b50610494611584565b6040516104a19190611db0565b60405180910390f35b3480156104b657600080fd5b506104bf61158a565b6040516104cc9190612219565b60405180910390f35b3480156104e157600080fd5b506104ea6117ab565b6040516105019b9a99989796959493929190612234565b60405180910390f35b60008054906101000a900473ffffffffffffffffffffffffffffffffffffffff1681565b6008805461053b90612323565b80601f016020809104026020016040519081016040528092919081815260200182805461056790612323565b80156105b45780601f10610589576101008083540402835291602001916105b4565b820191906000526020600020905b81548152906001019060200180831161059757829003601f168201915b505050505081565b600b6020528060005260406000206000915090508060000160009054906101000a900473ffffffffffffffffffffffffffffffffffffffff16908060010154905082565b60065481565b60025481565b6060600e805480602002602001604051908101604052809291908181526020016000905b828210156106c257838290600052602060002090600202016040518060400160405290816000820160009054906101000a900473ffffffffffffffffffffffffffffffffffffffff1673ffffffffffffffffffffffffffffffffffffffff1673ffffffffffffffffffffffffffffffffffffffff16815260200160018201548152505081526020019060010190610630565b50505050905090565b60045481565b6000600b60003373ffffffffffffffffffffffffffffffffffffffff1673ffffffffffffffffffffffffffffffffffffffff1681526020019081526020016000206001015411610756576040517f08c379a000000000000000000000000000000000000000000000000000000000815260040161074d906123a1565b60405180910390fd5b6000600c60008381526020019081526020016000209050600015158160030160003373ffffffffffffffffffffffffffffffffffffffff1673ffffffffffffffffffffffffffffffffffffffff16815260200190815260200160002060009054906101000a900460ff16151514610802576040517f08c379a00000000000000000000000000000000000000000000000000000000081526004016107f99061240d565b60405180910390fd5b60018160030160003373ffffffffffffffffffffffffffffffffffffffff1673ffffffffffffffffffffffffffffffffffffffff16815260200190815260200160002060006101000a81548160ff0219169083151502179055506001816002016000828254610871919061245c565b925050819055507fa2925e4595bf873fa82c22a1a89809777347023bf2b502d32710157a5eb8199c3382600201546040516108ad929190611d87565b60405180910390a15050565b600980546108c690612323565b80601f01602080910402602001604051908101604052809291908181526020018280546108f290612323565b801561093f5780601f106109145761010080835404028352916020019161093f565b820191906000526020600020905b81548152906001019060200180831161092257829003601f168201915b505050505081565b600047905090565b600080600281111561096457610963612187565b5b600a60009054906101000a900460ff16600281111561098657610985612187565b5b146109c6576040517f08c379a00000000000000000000000000000000000000000000000000000000081526004016109bd906124fe565b60405180910390fd5b6002544210610a0a576040517f08c379a0000000000000000000000000000000000000000000000000000000008152600401610a019061256a565b60405180910390fd5b600154341015610a4f576040517f08c379a0000000000000000000000000000000000000000000000000000000008152600401610a46906125d6565b60405180910390fd5b60035460055434610a60919061245c565b1115610aa1576040517f08c379a0000000000000000000000000000000000000000000000000000000008152600401610a9890612668565b60405180910390fd5b600080600b60008573ffffffffffffffffffffffffffffffffffffffff1673ffffffffffffffffffffffffffffffffffffffff168152602001908152602001600020600101541415610b875760066000815480929190610b0090612688565b919050555082600b60008573ffffffffffffffffffffffffffffffffffffffff1673ffffffffffffffffffffffffffffffffffffffff16815260200190815260200160002060000160006101000a81548173ffffffffffffffffffffffffffffffffffffffff021916908373ffffffffffffffffffffffffffffffffffffffff1602179055505b34600b60008573ffffffffffffffffffffffffffffffffffffffff1673ffffffffffffffffffffffffffffffffffffffff1681526020019081526020016000206001016000828254610bd9919061245c565b925050819055503460056000828254610bf2919061245c565b9250508190555060005b600e80549050811015610d5857610c57600e8281548110610c2057610c1f6126d1565b5b906000526020600020906002020160000160009054906101000a900473ffffffffffffffffffffffffffffffffffffffff166119c1565b8373ffffffffffffffffffffffffffffffffffffffff16600e8281548110610c8257610c816126d1565b5b906000526020600020906002020160000160009054906101000a900473ffffffffffffffffffffffffffffffffffffffff1673ffffffffffffffffffffffffffffffffffffffff161415610d4557600b60008573ffffffffffffffffffffffffffffffffffffffff1673ffffffffffffffffffffffffffffffffffffffff16815260200190815260200160002060010154600e8281548110610d2757610d266126d1565b5b90600052602060002090600202016001018190555060019150610d58565b8080610d5090612688565b915050610bfc565b5080610e3c57600e600b60008573ffffffffffffffffffffffffffffffffffffffff1673ffffffffffffffffffffffffffffffffffffffff16815260200190815260200160002090806001815401808255809150506001900390600052602060002090600202016000909190919091506000820160009054906101000a900473ffffffffffffffffffffffffffffffffffffffff168160000160006101000a81548173ffffffffffffffffffffffffffffffffffffffff021916908373ffffffffffffffffffffffffffffffffffffffff1602179055506001820154816001015550505b7f5cdc4ab8d637538ead6cc1904d4160343656c8c82bd266635cfd31ac008fffe08334600554604051610e7193929190612700565b60405180910390a1610e81611a5a565b505050565b60008054906101000a900473ffffffffffffffffffffffffffffffffffffffff1673ffffffffffffffffffffffffffffffffffffffff163373ffffffffffffffffffffffffffffffffffffffff1614610f14576040517f08c379a0000000000000000000000000000000000000000000000000000000008152600401610f0b906127a9565b60405180910390fd5b6002806002811115610f2957610f28612187565b5b600a60009054906101000a900460ff166002811115610f4b57610f4a612187565b5b14610f8b576040517f08c379a0000000000000000000000000000000000000000000000000000000008152600401610f82906124fe565b60405180910390fd5b6002544210610fcf576040517f08c379a0000000000000000000000000000000000000000000000000000000008152600401610fc69061256a565b60405180910390fd5b6000600c60008481526020019081526020016000209050600015158160040160009054906101000a900460ff1615151461103e576040517f08c379a000000000000000000000000000000000000000000000000000000000815260040161103590612815565b60405180910390fd5b600260065461104d9190612864565b81600201541015611093576040517f08c379a000000000000000000000000000000000000000000000000000000000815260040161108a90612907565b60405180910390fd5b8060040160019054906101000a900473ffffffffffffffffffffffffffffffffffffffff1673ffffffffffffffffffffffffffffffffffffffff166108fc82600101549081150290604051600060405180830381858888f19350505050158015611101573d6000803e3d6000fd5b5060018160040160006101000a81548160ff0219169083151502179055507f2af8d60b878c5e8de57c8ff96e03c6cfab6de26b47e989757345cc1dceaac99883826000018360010154846002015460018660040160019054906101000a900473ffffffffffffffffffffffffffffffffffffffff1660405161118896959493929190612a1b565b60405180910390a1505050565b60015481565b600c6020528060005260406000206000915090508060000180546111be90612323565b80601f01602080910402602001604051908101604052809291908181526020018280546111ea90612323565b80156112375780601f1061120c57610100808354040283529160200191611237565b820191906000526020600020905b81548152906001019060200180831161121a57829003601f168201915b5050505050908060010154908060020154908060040160009054906101000a900460ff16908060040160019054906101000a900473ffffffffffffffffffffffffffffffffffffffff16905085565b60008054906101000a900473ffffffffffffffffffffffffffffffffffffffff1673ffffffffffffffffffffffffffffffffffffffff163373ffffffffffffffffffffffffffffffffffffffff1614611314576040517f08c379a000000000000000000000000000000000000000000000000000000000815260040161130b906127a9565b60405180910390fd5b600280600281111561132957611328612187565b5b600a60009054906101000a900460ff16600281111561134b5761134a612187565b5b1461138b576040517f08c379a0000000000000000000000000000000000000000000000000000000008152600401611382906124fe565b60405180910390fd5b60025442106113cf576040517f08c379a00000000000000000000000000000000000000000000000000000000081526004016113c69061256a565b60405180910390fd5b6000600c6000600d5481526020019081526020016000209050600d60008154809291906113fb90612688565b919050555084816000019080519060200190611418929190611b1c565b508381600101819055506000816002018190555060008160040160006101000a81548160ff021916908315150217905550828160040160016101000a81548173ffffffffffffffffffffffffffffffffffffffff021916908373ffffffffffffffffffffffffffffffffffffffff1602179055507f9883a4e4f8698e4cc93bafb8d0d2376cb8c51dd322cb9fd80d02c691fcdea503600d548686600080886040516114c896959493929190612abe565b60405180910390a15050505050565b600d5481565b60035481565b600a60009054906101000a900460ff1681565b6007805461150390612323565b80601f016020809104026020016040519081016040528092919081815260200182805461152f90612323565b801561157c5780601f106115515761010080835404028352916020019161157c565b820191906000526020600020905b81548152906001019060200180831161155f57829003601f168201915b505050505081565b60055481565b600060018060028111156115a1576115a0612187565b5b600a60009054906101000a900460ff1660028111156115c3576115c2612187565b5b14611603576040517f08c379a00000000000000000000000000000000000000000000000000000000081526004016115fa906124fe565b60405180910390fd5b6002544210611647576040517f08c379a000000000000000000000000000000000000000000000000000000000815260040161163e9061256a565b60405180910390fd5b6000600b60003373ffffffffffffffffffffffffffffffffffffffff1673ffffffffffffffffffffffffffffffffffffffff16815260200190815260200160002060010154116116cc576040517f08c379a00000000000000000000000000000000000000000000000000000000081526004016116c390612b98565b60405180910390fd5b60003390508073ffffffffffffffffffffffffffffffffffffffff166108fc600b60003373ffffffffffffffffffffffffffffffffffffffff1673ffffffffffffffffffffffffffffffffffffffff168152602001908152602001600020600101549081150290604051600060405180830381858888f19350505050158015611759573d6000803e3d6000fd5b506000600b60003373ffffffffffffffffffffffffffffffffffffffff1673ffffffffffffffffffffffffffffffffffffffff1681526020019081526020016000206001018190555060019250505090565b600080600080600080606080600080606060008054906101000a900473ffffffffffffffffffffffffffffffffffffffff169a50600154995060025498506003549750600454965060055495506007805461180590612323565b80601f016020809104026020016040519081016040528092919081815260200182805461183190612323565b801561187e5780601f106118535761010080835404028352916020019161187e565b820191906000526020600020905b81548152906001019060200180831161186157829003601f168201915b505050505094506008805461189290612323565b80601f01602080910402602001604051908101604052809291908181526020018280546118be90612323565b801561190b5780601f106118e05761010080835404028352916020019161190b565b820191906000526020600020905b8154815290600101906020018083116118ee57829003601f168201915b50505050509350600a60009054906101000a900460ff1692504791506009805461193490612323565b80601f016020809104026020016040519081016040528092919081815260200182805461196090612323565b80156119ad5780601f10611982576101008083540402835291602001916119ad565b820191906000526020600020905b81548152906001019060200180831161199057829003601f168201915b50505050509050909192939495969798999a565b611a57816040516024016119d59190612bb8565b6040516020818303038152906040527f2c2ecbc2000000000000000000000000000000000000000000000000000000007bffffffffffffffffffffffffffffffffffffffffffffffffffffffff19166020820180517bffffffffffffffffffffffffffffffffffffffffffffffffffffffff8381831617835250505050611ad6565b50565b6003546005541415611a96576002600a60006101000a81548160ff02191690836002811115611a8c57611a8b612187565b5b0217905550611acd565b600254421115611acc576001600a60006101000a81548160ff02191690836002811115611ac657611ac5612187565b5b02179055505b5b42600481905550565b611aed81611ae5611af0611b11565b63ffffffff16565b50565b60006a636f6e736f6c652e6c6f679050600080835160208501845afa505050565b611ba2819050919050565b828054611b2890612323565b90600052602060002090601f016020900481019282611b4a5760008555611b91565b82601f10611b6357805160ff1916838001178555611b91565b82800160010185558215611b91579182015b82811115611b90578251825591602001919060010190611b75565b5b509050611b9e9190611bac565b5090565b611baa612bd3565b565b5b80821115611bc5576000816000905550600101611bad565b5090565b600073ffffffffffffffffffffffffffffffffffffffff82169050919050565b6000611bf482611bc9565b9050919050565b611c0481611be9565b82525050565b6000602082019050611c1f6000830184611bfb565b92915050565b600081519050919050565b600082825260208201905092915050565b60005b83811015611c5f578082015181840152602081019050611c44565b83811115611c6e576000848401525b50505050565b6000601f19601f8301169050919050565b6000611c9082611c25565b611c9a8185611c30565b9350611caa818560208601611c41565b611cb381611c74565b840191505092915050565b60006020820190508181036000830152611cd88184611c85565b905092915050565b6000604051905090565b600080fd5b600080fd5b6000611cff82611bc9565b9050919050565b611d0f81611cf4565b8114611d1a57600080fd5b50565b600081359050611d2c81611d06565b92915050565b600060208284031215611d4857611d47611cea565b5b6000611d5684828501611d1d565b91505092915050565b611d6881611cf4565b82525050565b6000819050919050565b611d8181611d6e565b82525050565b6000604082019050611d9c6000830185611d5f565b611da96020830184611d78565b9392505050565b6000602082019050611dc56000830184611d78565b92915050565b600081519050919050565b600082825260208201905092915050565b6000819050602082019050919050565b611e0081611cf4565b82525050565b611e0f81611d6e565b82525050565b604082016000820151611e2b6000850182611df7565b506020820151611e3e6020850182611e06565b50505050565b6000611e508383611e15565b60408301905092915050565b6000602082019050919050565b6000611e7482611dcb565b611e7e8185611dd6565b9350611e8983611de7565b8060005b83811015611eba578151611ea18882611e44565b9750611eac83611e5c565b925050600181019050611e8d565b5085935050505092915050565b60006020820190508181036000830152611ee18184611e69565b905092915050565b611ef281611d6e565b8114611efd57600080fd5b50565b600081359050611f0f81611ee9565b92915050565b600060208284031215611f2b57611f2a611cea565b5b6000611f3984828501611f00565b91505092915050565b60008115159050919050565b611f5781611f42565b82525050565b600060a0820190508181036000830152611f778188611c85565b9050611f866020830187611d78565b611f936040830186611d78565b611fa06060830185611f4e565b611fad6080830184611bfb565b9695505050505050565b600080fd5b600080fd5b7f4e487b7100000000000000000000000000000000000000000000000000000000600052604160045260246000fd5b611ff982611c74565b810181811067ffffffffffffffff8211171561201857612017611fc1565b5b80604052505050565b600061202b611ce0565b90506120378282611ff0565b919050565b600067ffffffffffffffff82111561205757612056611fc1565b5b61206082611c74565b9050602081019050919050565b82818337600083830152505050565b600061208f61208a8461203c565b612021565b9050828152602081018484840111156120ab576120aa611fbc565b5b6120b684828561206d565b509392505050565b600082601f8301126120d3576120d2611fb7565b5b81356120e384826020860161207c565b91505092915050565b6120f581611be9565b811461210057600080fd5b50565b600081359050612112816120ec565b92915050565b60008060006060848603121561213157612130611cea565b5b600084013567ffffffffffffffff81111561214f5761214e611cef565b5b61215b868287016120be565b935050602061216c86828701611f00565b925050604061217d86828701612103565b9150509250925092565b7f4e487b7100000000000000000000000000000000000000000000000000000000600052602160045260246000fd5b600381106121c7576121c6612187565b5b50565b60008190506121d8826121b6565b919050565b60006121e8826121ca565b9050919050565b6121f8816121dd565b82525050565b600060208201905061221360008301846121ef565b92915050565b600060208201905061222e6000830184611f4e565b92915050565b60006101608201905061224a600083018e611bfb565b612257602083018d611d78565b612264604083018c611d78565b612271606083018b611d78565b61227e608083018a611d78565b61228b60a0830189611d78565b81810360c083015261229d8188611c85565b905081810360e08301526122b18187611c85565b90506122c16101008301866121ef565b6122cf610120830185611d78565b8181036101408301526122e28184611c85565b90509c9b505050505050505050505050565b7f4e487b7100000000000000000000000000000000000000000000000000000000600052602260045260246000fd5b6000600282049050600182168061233b57607f821691505b6020821081141561234f5761234e6122f4565b5b50919050565b7f4f6e6c7920636f6e7472696275746f722063616e20766f746520210000000000600082015250565b600061238b601b83611c30565b915061239682612355565b602082019050919050565b600060208201905081810360008301526123ba8161237e565b9050919050565b7f596f7520616c726561647920766f746564202100000000000000000000000000600082015250565b60006123f7601383611c30565b9150612402826123c1565b602082019050919050565b60006020820190508181036000830152612426816123ea565b9050919050565b7f4e487b7100000000000000000000000000000000000000000000000000000000600052601160045260246000fd5b600061246782611d6e565b915061247283611d6e565b9250827fffffffffffffffffffffffffffffffffffffffffffffffffffffffffffffffff038211156124a7576124a661242d565b5b828201905092915050565b7f496e76616c696420737461746500000000000000000000000000000000000000600082015250565b60006124e8600d83611c30565b91506124f3826124b2565b602082019050919050565b60006020820190508181036000830152612517816124db565b9050919050565b7f446561646c696e65206861732070617373656420210000000000000000000000600082015250565b6000612554601583611c30565b915061255f8261251e565b602082019050919050565b6000602082019050818103600083015261258381612547565b9050919050565b7f436f6e747269627574696f6e20616d6f756e7420697320746f6f206c6f772021600082015250565b60006125c0602083611c30565b91506125cb8261258a565b602082019050919050565b600060208201905081810360008301526125ef816125b3565b9050919050565b7f54686520726563656976656420616d6f756e74206973206c657373207468616e60008201527f2074686520616d6f756e742073656e742e000000000000000000000000000000602082015250565b6000612652603183611c30565b915061265d826125f6565b604082019050919050565b6000602082019050818103600083015261268181612645565b9050919050565b600061269382611d6e565b91507fffffffffffffffffffffffffffffffffffffffffffffffffffffffffffffffff8214156126c6576126c561242d565b5b600182019050919050565b7f4e487b7100000000000000000000000000000000000000000000000000000000600052603260045260246000fd5b60006060820190506127156000830186611d5f565b6127226020830185611d78565b61272f6040830184611d78565b949350505050565b7f596f7520646f6e7420686176652061636365737320746f20706572666f726d2060008201527f74686973206f7065726174696f6e202100000000000000000000000000000000602082015250565b6000612793603083611c30565b915061279e82612737565b604082019050919050565b600060208201905081810360008301526127c281612786565b9050919050565b7f5265717565737420616c726561647920636f6d706c6574656400000000000000600082015250565b60006127ff601983611c30565b915061280a826127c9565b602082019050919050565b6000602082019050818103600083015261282e816127f2565b9050919050565b7f4e487b7100000000000000000000000000000000000000000000000000000000600052601260045260246000fd5b600061286f82611d6e565b915061287a83611d6e565b92508261288a57612889612835565b5b828204905092915050565b7f4174206c656173742035302520636f6e7472696275746f72206e65656420746f60008201527f20766f746520666f722074686973207265717565737400000000000000000000602082015250565b60006128f1603683611c30565b91506128fc82612895565b604082019050919050565b60006020820190508181036000830152612920816128e4565b9050919050565b60008190508160005260206000209050919050565b6000815461294981612323565b6129538186611c30565b9450600182166000811461296e5760018114612980576129b3565b60ff19831686526020860193506129b3565b61298985612927565b60005b838110156129ab5781548189015260018201915060208101905061298c565b808801955050505b50505092915050565b6000819050919050565b60006129e16129dc6129d784611bc9565b6129bc565b611bc9565b9050919050565b60006129f3826129c6565b9050919050565b6000612a05826129e8565b9050919050565b612a15816129fa565b82525050565b600060c082019050612a306000830189611d78565b8181036020830152612a42818861293c565b9050612a516040830187611d78565b612a5e6060830186611d78565b612a6b6080830185611f4e565b612a7860a0830184612a0c565b979650505050505050565b6000819050919050565b6000612aa8612aa3612a9e84612a83565b6129bc565b611d6e565b9050919050565b612ab881612a8d565b82525050565b600060c082019050612ad36000830189611d78565b8181036020830152612ae58188611c85565b9050612af46040830187611d78565b612b016060830186612aaf565b612b0e6080830185611f4e565b612b1b60a0830184612a0c565b979650505050505050565b7f596f7520646f6e74206861766520616e7920636f6e747269627574656420616d60008201527f6f756e7420210000000000000000000000000000000000000000000000000000602082015250565b6000612b82602683611c30565b9150612b8d82612b26565b604082019050919050565b60006020820190508181036000830152612bb181612b75565b9050919050565b6000602082019050612bcd6000830184611d5f565b92915050565b7f4e487b7100000000000000000000000000000000000000000000000000000000600052605160045260246000fdfea264697066735822122021ff04e7d986c55f53324fbfbc61d1c963bf500edb66c815a1a15cd7f12d8d9764736f6c63430008090033a2646970667358221220697bb6bb5455348ae8a530c381b1814eb600fa526dfcb1fe27ae880487b30c8564736f6c63430008090033",
  "linkReferences": {},
  "deployedLinkReferences": {}
}