{
  "_format": "hh-sol-artifact-1",
  "contractName": "Project",
  "sourceName": "contracts/Project.sol",
  "abi": [
    {
      "inputs": [
        {
          "internalType": "address",
          "name": "_creator",
          "type": "address"
        },
        {
          "internalType": "uint256",
          "name": "_minimumContribution",
          "type": "uint256"
        },
        {
          "internalType": "uint256",
          "name": "_deadline",
          "type": "uint256"
        },
        {
          "internalType": "uint256",
          "name": "_targetContribution",
          "type": "uint256"
        },
        {
          "internalType": "string",
          "name": "_projectTitle",
          "type": "string"
        },
        {
          "internalType": "string",
          "name": "_projectDes",
          "type": "string"
        },
        {
          "internalType": "string",
          "name": "_imageHash",
          "type": "string"
        }
      ],
      "stateMutability": "nonpayable",
      "type": "constructor"
    },
    {
      "anonymous": false,
      "inputs": [
        {
          "indexed": false,
          "internalType": "uint256",
          "name": "requestId",
          "type": "uint256"
        },
        {
          "indexed": false,
          "internalType": "string",
          "name": "description",
          "type": "string"
        },
        {
          "indexed": false,
          "internalType": "uint256",
          "name": "amount",
          "type": "uint256"
        },
        {
          "indexed": false,
          "internalType": "uint256",
          "name": "noOfVotes",
          "type": "uint256"
        },
        {
          "indexed": false,
          "internalType": "bool",
          "name": "isCompleted",
          "type": "bool"
        },
        {
          "indexed": false,
          "internalType": "address",
          "name": "reciptent",
          "type": "address"
        }
      ],
      "name": "AmountWithdrawSuccessful",
      "type": "event"
    },
    {
      "anonymous": false,
      "inputs": [
        {
          "indexed": false,
          "internalType": "address",
          "name": "contributor",
          "type": "address"
        },
        {
          "indexed": false,
          "internalType": "uint256",
          "name": "amount",
          "type": "uint256"
        },
        {
          "indexed": false,
          "internalType": "uint256",
          "name": "currentTotal",
          "type": "uint256"
        }
      ],
      "name": "FundingReceived",
      "type": "event"
    },
    {
      "anonymous": false,
      "inputs": [
        {
          "indexed": false,
          "internalType": "uint256",
          "name": "requestId",
          "type": "uint256"
        },
        {
          "indexed": false,
          "internalType": "string",
          "name": "description",
          "type": "string"
        },
        {
          "indexed": false,
          "internalType": "uint256",
          "name": "amount",
          "type": "uint256"
        },
        {
          "indexed": false,
          "internalType": "uint256",
          "name": "noOfVotes",
          "type": "uint256"
        },
        {
          "indexed": false,
          "internalType": "bool",
          "name": "isCompleted",
          "type": "bool"
        },
        {
          "indexed": false,
          "internalType": "address",
          "name": "reciptent",
          "type": "address"
        }
      ],
      "name": "WithdrawRequestCreated",
      "type": "event"
    },
    {
      "anonymous": false,
      "inputs": [
        {
          "indexed": false,
          "internalType": "address",
          "name": "voter",
          "type": "address"
        },
        {
          "indexed": false,
          "internalType": "uint256",
          "name": "totalVote",
          "type": "uint256"
        }
      ],
      "name": "WithdrawVote",
      "type": "event"
    },
    {
      "inputs": [],
      "name": "completeAt",
      "outputs": [
        {
          "internalType": "uint256",
          "name": "",
          "type": "uint256"
        }
      ],
      "stateMutability": "view",
      "type": "function"
    },
    {
      "inputs": [
        {
          "internalType": "address",
          "name": "_contributor",
          "type": "address"
        }
      ],
      "name": "contribute",
      "outputs": [],
      "stateMutability": "payable",
      "type": "function"
    },
    {
      "inputs": [
        {
          "internalType": "address",
          "name": "",
          "type": "address"
        }
      ],
      "name": "contributiors",
      "outputs": [
        {
          "internalType": "uint256",
          "name": "",
          "type": "uint256"
        }
      ],
      "stateMutability": "view",
      "type": "function"
    },
    {
      "inputs": [
        {
          "internalType": "string",
          "name": "_description",
          "type": "string"
        },
        {
          "internalType": "uint256",
          "name": "_amount",
          "type": "uint256"
        },
        {
          "internalType": "address payable",
          "name": "_reciptent",
          "type": "address"
        }
      ],
      "name": "createWithdrawRequest",
      "outputs": [],
      "stateMutability": "nonpayable",
      "type": "function"
    },
    {
      "inputs": [],
      "name": "creator",
      "outputs": [
        {
          "internalType": "address payable",
          "name": "",
          "type": "address"
        }
      ],
      "stateMutability": "view",
      "type": "function"
    },
    {
      "inputs": [],
      "name": "deadline",
      "outputs": [
        {
          "internalType": "uint256",
          "name": "",
          "type": "uint256"
        }
      ],
      "stateMutability": "view",
      "type": "function"
    },
    {
      "inputs": [],
      "name": "getContractBalance",
      "outputs": [
        {
          "internalType": "uint256",
          "name": "",
          "type": "uint256"
        }
      ],
      "stateMutability": "view",
      "type": "function"
    },
    {
      "inputs": [],
      "name": "getProjectDetails",
      "outputs": [
        {
          "internalType": "address payable",
          "name": "projectStarter",
          "type": "address"
        },
        {
          "internalType": "uint256",
          "name": "minContribution",
          "type": "uint256"
        },
        {
          "internalType": "uint256",
          "name": "projectDeadline",
          "type": "uint256"
        },
        {
          "internalType": "uint256",
          "name": "goalAmount",
          "type": "uint256"
        },
        {
          "internalType": "uint256",
          "name": "completedTime",
          "type": "uint256"
        },
        {
          "internalType": "uint256",
          "name": "currentAmount",
          "type": "uint256"
        },
        {
          "internalType": "string",
          "name": "title",
          "type": "string"
        },
        {
          "internalType": "string",
          "name": "desc",
          "type": "string"
        },
        {
          "internalType": "enum Project.State",
          "name": "currentState",
          "type": "uint8"
        },
        {
          "internalType": "uint256",
          "name": "balance",
          "type": "uint256"
        },
        {
          "internalType": "string",
          "name": "image",
          "type": "string"
        }
      ],
      "stateMutability": "view",
      "type": "function"
    },
    {
      "inputs": [],
      "name": "imageHash",
      "outputs": [
        {
          "internalType": "string",
          "name": "",
          "type": "string"
        }
      ],
      "stateMutability": "view",
      "type": "function"
    },
    {
      "inputs": [],
      "name": "minimumContribution",
      "outputs": [
        {
          "internalType": "uint256",
          "name": "",
          "type": "uint256"
        }
      ],
      "stateMutability": "view",
      "type": "function"
    },
    {
      "inputs": [],
      "name": "noOfContributers",
      "outputs": [
        {
          "internalType": "uint256",
          "name": "",
          "type": "uint256"
        }
      ],
      "stateMutability": "view",
      "type": "function"
    },
    {
      "inputs": [],
      "name": "numOfWithdrawRequests",
      "outputs": [
        {
          "internalType": "uint256",
          "name": "",
          "type": "uint256"
        }
      ],
      "stateMutability": "view",
      "type": "function"
    },
    {
      "inputs": [],
      "name": "projectDes",
      "outputs": [
        {
          "internalType": "string",
          "name": "",
          "type": "string"
        }
      ],
      "stateMutability": "view",
      "type": "function"
    },
    {
      "inputs": [],
      "name": "projectTitle",
      "outputs": [
        {
          "internalType": "string",
          "name": "",
          "type": "string"
        }
      ],
      "stateMutability": "view",
      "type": "function"
    },
    {
      "inputs": [],
      "name": "raisedAmount",
      "outputs": [
        {
          "internalType": "uint256",
          "name": "",
          "type": "uint256"
        }
      ],
      "stateMutability": "view",
      "type": "function"
    },
    {
      "inputs": [],
      "name": "requestRefund",
      "outputs": [
        {
          "internalType": "bool",
          "name": "",
          "type": "bool"
        }
      ],
      "stateMutability": "nonpayable",
      "type": "function"
    },
    {
      "inputs": [],
      "name": "state",
      "outputs": [
        {
          "internalType": "enum Project.State",
          "name": "",
          "type": "uint8"
        }
      ],
      "stateMutability": "view",
      "type": "function"
    },
    {
      "inputs": [],
      "name": "targetContribution",
      "outputs": [
        {
          "internalType": "uint256",
          "name": "",
          "type": "uint256"
        }
      ],
      "stateMutability": "view",
      "type": "function"
    },
    {
      "inputs": [
        {
          "internalType": "uint256",
          "name": "_requestId",
          "type": "uint256"
        }
      ],
      "name": "voteWithdrawRequest",
      "outputs": [],
      "stateMutability": "nonpayable",
      "type": "function"
    },
    {
      "inputs": [
        {
          "internalType": "uint256",
          "name": "_requestId",
          "type": "uint256"
        }
      ],
      "name": "withdrawRequestedAmount",
      "outputs": [],
      "stateMutability": "nonpayable",
      "type": "function"
    },
    {
      "inputs": [
        {
          "internalType": "uint256",
          "name": "",
          "type": "uint256"
        }
      ],
      "name": "withdrawRequests",
      "outputs": [
        {
          "internalType": "string",
          "name": "description",
          "type": "string"
        },
        {
          "internalType": "uint256",
          "name": "amount",
          "type": "uint256"
        },
        {
          "internalType": "uint256",
          "name": "noOfVotes",
          "type": "uint256"
        },
        {
          "internalType": "bool",
          "name": "isCompleted",
          "type": "bool"
        },
        {
          "internalType": "address payable",
          "name": "reciptent",
          "type": "address"
        }
      ],
      "stateMutability": "view",
      "type": "function"
    }
  ],
  "bytecode": "0x60806040526000600a60006101000a81548160ff021916908360028111156200002d576200002c620001cf565b5b02179055506000600d553480156200004457600080fd5b5060405162002b7e38038062002b7e83398181016040528101906200006a91906200043b565b866000806101000a81548173ffffffffffffffffffffffffffffffffffffffff021916908373ffffffffffffffffffffffffffffffffffffffff1602179055508560018190555084600281905550836003819055508260079080519060200190620000d79291906200011f565b508160089080519060200190620000f09291906200011f565b5060006005819055508060099080519060200190620001119291906200011f565b5050505050505050620005b0565b8280546200012d906200057a565b90600052602060002090601f0160209004810192826200015157600085556200019d565b82601f106200016c57805160ff19168380011785556200019d565b828001600101855582156200019d579182015b828111156200019c5782518255916020019190600101906200017f565b5b509050620001ac9190620001b0565b5090565b5b80821115620001cb576000816000905550600101620001b1565b5090565b7f4e487b7100000000000000000000000000000000000000000000000000000000600052602160045260246000fd5b6000604051905090565b600080fd5b600080fd5b600073ffffffffffffffffffffffffffffffffffffffff82169050919050565b60006200023f8262000212565b9050919050565b620002518162000232565b81146200025d57600080fd5b50565b600081519050620002718162000246565b92915050565b6000819050919050565b6200028c8162000277565b81146200029857600080fd5b50565b600081519050620002ac8162000281565b92915050565b600080fd5b600080fd5b6000601f19601f8301169050919050565b7f4e487b7100000000000000000000000000000000000000000000000000000000600052604160045260246000fd5b6200030782620002bc565b810181811067ffffffffffffffff82111715620003295762000328620002cd565b5b80604052505050565b60006200033e620001fe565b90506200034c8282620002fc565b919050565b600067ffffffffffffffff8211156200036f576200036e620002cd565b5b6200037a82620002bc565b9050602081019050919050565b60005b83811015620003a75780820151818401526020810190506200038a565b83811115620003b7576000848401525b50505050565b6000620003d4620003ce8462000351565b62000332565b905082815260208101848484011115620003f357620003f2620002b7565b5b6200040084828562000387565b509392505050565b600082601f83011262000420576200041f620002b2565b5b815162000432848260208601620003bd565b91505092915050565b600080600080600080600060e0888a0312156200045d576200045c62000208565b5b60006200046d8a828b0162000260565b9750506020620004808a828b016200029b565b9650506040620004938a828b016200029b565b9550506060620004a68a828b016200029b565b945050608088015167ffffffffffffffff811115620004ca57620004c96200020d565b5b620004d88a828b0162000408565b93505060a088015167ffffffffffffffff811115620004fc57620004fb6200020d565b5b6200050a8a828b0162000408565b92505060c088015167ffffffffffffffff8111156200052e576200052d6200020d565b5b6200053c8a828b0162000408565b91505092959891949750929550565b7f4e487b7100000000000000000000000000000000000000000000000000000000600052602260045260246000fd5b600060028204905060018216806200059357607f821691505b60208210811415620005aa57620005a96200054b565b5b50919050565b6125be80620005c06000396000f3fe60806040526004361061012a5760003560e01c8063752e19f9116100ab578063b82c86d61161006f578063b82c86d6146103c7578063c19d93fb146103f2578063c3e20c9f1461041d578063c59ee1dc14610448578063d5cef13314610473578063ff3a9c7e1461049e5761012a565b8063752e19f9146102de578063937e09b114610307578063992a7dfb14610332578063a46752ae14610373578063b40141bf1461039c5761012a565b80634c4cea5a116100f25780634c4cea5a146102185780634e695a371461024357806351605d801461026c5780636f9fb98a1461029757806373e888fd146102c25761012a565b806302d05d3f1461012f57806303c29d581461015a5780630a7713701461018557806324274ee9146101c257806329dcb0cf146101ed575b600080fd5b34801561013b57600080fd5b506101446104d3565b6040516101519190611727565b60405180910390f35b34801561016657600080fd5b5061016f6104f7565b60405161017c91906117db565b60405180910390f35b34801561019157600080fd5b506101ac60048036038101906101a7919061184f565b610585565b6040516101b99190611895565b60405180910390f35b3480156101ce57600080fd5b506101d761059d565b6040516101e49190611895565b60405180910390f35b3480156101f957600080fd5b506102026105a3565b60405161020f9190611895565b60405180910390f35b34801561022457600080fd5b5061022d6105a9565b60405161023a9190611895565b60405180910390f35b34801561024f57600080fd5b5061026a600480360381019061026591906118dc565b6105af565b005b34801561027857600080fd5b50610281610794565b60405161028e91906117db565b60405180910390f35b3480156102a357600080fd5b506102ac610822565b6040516102b99190611895565b60405180910390f35b6102dc60048036038101906102d7919061184f565b61082a565b005b3480156102ea57600080fd5b50610305600480360381019061030091906118dc565b610a95565b005b34801561031357600080fd5b5061031c610da4565b6040516103299190611895565b60405180910390f35b34801561033e57600080fd5b50610359600480360381019061035491906118dc565b610daa565b60405161036a959493929190611924565b60405180910390f35b34801561037f57600080fd5b5061039a60048036038101906103959190611adf565b610e95565b005b3480156103a857600080fd5b506103b16110e6565b6040516103be9190611895565b60405180910390f35b3480156103d357600080fd5b506103dc6110ec565b6040516103e99190611895565b60405180910390f35b3480156103fe57600080fd5b506104076110f2565b6040516104149190611bc5565b60405180910390f35b34801561042957600080fd5b50610432611105565b60405161043f91906117db565b60405180910390f35b34801561045457600080fd5b5061045d611193565b60405161046a9190611895565b60405180910390f35b34801561047f57600080fd5b50610488611199565b6040516104959190611be0565b60405180910390f35b3480156104aa57600080fd5b506104b36113b1565b6040516104ca9b9a99989796959493929190611bfb565b60405180910390f35b60008054906101000a900473ffffffffffffffffffffffffffffffffffffffff1681565b6008805461050490611cea565b80601f016020809104026020016040519081016040528092919081815260200182805461053090611cea565b801561057d5780601f106105525761010080835404028352916020019161057d565b820191906000526020600020905b81548152906001019060200180831161056057829003601f168201915b505050505081565b600b6020528060005260406000206000915090505481565b60065481565b60025481565b60045481565b6000600b60003373ffffffffffffffffffffffffffffffffffffffff1673ffffffffffffffffffffffffffffffffffffffff1681526020019081526020016000205411610631576040517f08c379a000000000000000000000000000000000000000000000000000000000815260040161062890611d68565b60405180910390fd5b6000600c60008381526020019081526020016000209050600015158160030160003373ffffffffffffffffffffffffffffffffffffffff1673ffffffffffffffffffffffffffffffffffffffff16815260200190815260200160002060009054906101000a900460ff161515146106dd576040517f08c379a00000000000000000000000000000000000000000000000000000000081526004016106d490611dd4565b60405180910390fd5b60018160030160003373ffffffffffffffffffffffffffffffffffffffff1673ffffffffffffffffffffffffffffffffffffffff16815260200190815260200160002060006101000a81548160ff021916908315150217905550600181600201600082825461074c9190611e23565b925050819055507fa2925e4595bf873fa82c22a1a89809777347023bf2b502d32710157a5eb8199c338260020154604051610788929190611e88565b60405180910390a15050565b600980546107a190611cea565b80601f01602080910402602001604051908101604052809291908181526020018280546107cd90611cea565b801561081a5780601f106107ef5761010080835404028352916020019161081a565b820191906000526020600020905b8154815290600101906020018083116107fd57829003601f168201915b505050505081565b600047905090565b600080600281111561083f5761083e611b4e565b5b600a60009054906101000a900460ff16600281111561086157610860611b4e565b5b146108a1576040517f08c379a000000000000000000000000000000000000000000000000000000000815260040161089890611efd565b60405180910390fd5b60025442106108e5576040517f08c379a00000000000000000000000000000000000000000000000000000000081526004016108dc90611f69565b60405180910390fd5b60015434101561092a576040517f08c379a000000000000000000000000000000000000000000000000000000000815260040161092190611fd5565b60405180910390fd5b6003546005543461093b9190611e23565b111561097c576040517f08c379a000000000000000000000000000000000000000000000000000000000815260040161097390612067565b60405180910390fd5b6000600b60008473ffffffffffffffffffffffffffffffffffffffff1673ffffffffffffffffffffffffffffffffffffffff1681526020019081526020016000205414156109dd57600660008154809291906109d790612087565b91905055505b34600b60008473ffffffffffffffffffffffffffffffffffffffff1673ffffffffffffffffffffffffffffffffffffffff1681526020019081526020016000206000828254610a2c9190611e23565b925050819055503460056000828254610a459190611e23565b925050819055507f5cdc4ab8d637538ead6cc1904d4160343656c8c82bd266635cfd31ac008fffe08234600554604051610a81939291906120d0565b60405180910390a1610a916115c7565b5050565b60008054906101000a900473ffffffffffffffffffffffffffffffffffffffff1673ffffffffffffffffffffffffffffffffffffffff163373ffffffffffffffffffffffffffffffffffffffff1614610b23576040517f08c379a0000000000000000000000000000000000000000000000000000000008152600401610b1a90612179565b60405180910390fd5b6002806002811115610b3857610b37611b4e565b5b600a60009054906101000a900460ff166002811115610b5a57610b59611b4e565b5b14610b9a576040517f08c379a0000000000000000000000000000000000000000000000000000000008152600401610b9190611efd565b60405180910390fd5b6002544210610bde576040517f08c379a0000000000000000000000000000000000000000000000000000000008152600401610bd590611f69565b60405180910390fd5b6000600c60008481526020019081526020016000209050600015158160040160009054906101000a900460ff16151514610c4d576040517f08c379a0000000000000000000000000000000000000000000000000000000008152600401610c44906121e5565b60405180910390fd5b6002600654610c5c9190612234565b81600201541015610ca2576040517f08c379a0000000000000000000000000000000000000000000000000000000008152600401610c99906122d7565b60405180910390fd5b8060040160019054906101000a900473ffffffffffffffffffffffffffffffffffffffff1673ffffffffffffffffffffffffffffffffffffffff166108fc82600101549081150290604051600060405180830381858888f19350505050158015610d10573d6000803e3d6000fd5b5060018160040160006101000a81548160ff0219169083151502179055507f2af8d60b878c5e8de57c8ff96e03c6cfab6de26b47e989757345cc1dceaac99883826000018360010154846002015460018660040160019054906101000a900473ffffffffffffffffffffffffffffffffffffffff16604051610d97969594939291906123eb565b60405180910390a1505050565b60015481565b600c602052806000526040600020600091509050806000018054610dcd90611cea565b80601f0160208091040260200160405190810160405280929190818152602001828054610df990611cea565b8015610e465780601f10610e1b57610100808354040283529160200191610e46565b820191906000526020600020905b815481529060010190602001808311610e2957829003601f168201915b5050505050908060010154908060020154908060040160009054906101000a900460ff16908060040160019054906101000a900473ffffffffffffffffffffffffffffffffffffffff16905085565b60008054906101000a900473ffffffffffffffffffffffffffffffffffffffff1673ffffffffffffffffffffffffffffffffffffffff163373ffffffffffffffffffffffffffffffffffffffff1614610f23576040517f08c379a0000000000000000000000000000000000000000000000000000000008152600401610f1a90612179565b60405180910390fd5b6002806002811115610f3857610f37611b4e565b5b600a60009054906101000a900460ff166002811115610f5a57610f59611b4e565b5b14610f9a576040517f08c379a0000000000000000000000000000000000000000000000000000000008152600401610f9190611efd565b60405180910390fd5b6002544210610fde576040517f08c379a0000000000000000000000000000000000000000000000000000000008152600401610fd590611f69565b60405180910390fd5b6000600c6000600d5481526020019081526020016000209050600d600081548092919061100a90612087565b919050555084816000019080519060200190611027929190611643565b508381600101819055506000816002018190555060008160040160006101000a81548160ff021916908315150217905550828160040160016101000a81548173ffffffffffffffffffffffffffffffffffffffff021916908373ffffffffffffffffffffffffffffffffffffffff1602179055507f9883a4e4f8698e4cc93bafb8d0d2376cb8c51dd322cb9fd80d02c691fcdea503600d548686600080886040516110d79695949392919061248e565b60405180910390a15050505050565b600d5481565b60035481565b600a60009054906101000a900460ff1681565b6007805461111290611cea565b80601f016020809104026020016040519081016040528092919081815260200182805461113e90611cea565b801561118b5780601f106111605761010080835404028352916020019161118b565b820191906000526020600020905b81548152906001019060200180831161116e57829003601f168201915b505050505081565b60055481565b600060018060028111156111b0576111af611b4e565b5b600a60009054906101000a900460ff1660028111156111d2576111d1611b4e565b5b14611212576040517f08c379a000000000000000000000000000000000000000000000000000000000815260040161120990611efd565b60405180910390fd5b6002544210611256576040517f08c379a000000000000000000000000000000000000000000000000000000000815260040161124d90611f69565b60405180910390fd5b6000600b60003373ffffffffffffffffffffffffffffffffffffffff1673ffffffffffffffffffffffffffffffffffffffff16815260200190815260200160002054116112d8576040517f08c379a00000000000000000000000000000000000000000000000000000000081526004016112cf90612568565b60405180910390fd5b60003390508073ffffffffffffffffffffffffffffffffffffffff166108fc600b60003373ffffffffffffffffffffffffffffffffffffffff1673ffffffffffffffffffffffffffffffffffffffff168152602001908152602001600020549081150290604051600060405180830381858888f19350505050158015611362573d6000803e3d6000fd5b506000600b60003373ffffffffffffffffffffffffffffffffffffffff1673ffffffffffffffffffffffffffffffffffffffff1681526020019081526020016000208190555060019250505090565b600080600080600080606080600080606060008054906101000a900473ffffffffffffffffffffffffffffffffffffffff169a50600154995060025498506003549750600454965060055495506007805461140b90611cea565b80601f016020809104026020016040519081016040528092919081815260200182805461143790611cea565b80156114845780601f1061145957610100808354040283529160200191611484565b820191906000526020600020905b81548152906001019060200180831161146757829003601f168201915b505050505094506008805461149890611cea565b80601f01602080910402602001604051908101604052809291908181526020018280546114c490611cea565b80156115115780601f106114e657610100808354040283529160200191611511565b820191906000526020600020905b8154815290600101906020018083116114f457829003601f168201915b50505050509350600a60009054906101000a900460ff1692504791506009805461153a90611cea565b80601f016020809104026020016040519081016040528092919081815260200182805461156690611cea565b80156115b35780601f10611588576101008083540402835291602001916115b3565b820191906000526020600020905b81548152906001019060200180831161159657829003601f168201915b50505050509050909192939495969798999a565b6003546005541415611603576002600a60006101000a81548160ff021916908360028111156115f9576115f8611b4e565b5b021790555061163a565b600254421115611639576001600a60006101000a81548160ff0219169083600281111561163357611632611b4e565b5b02179055505b5b42600481905550565b82805461164f90611cea565b90600052602060002090601f01602090048101928261167157600085556116b8565b82601f1061168a57805160ff19168380011785556116b8565b828001600101855582156116b8579182015b828111156116b757825182559160200191906001019061169c565b5b5090506116c591906116c9565b5090565b5b808211156116e25760008160009055506001016116ca565b5090565b600073ffffffffffffffffffffffffffffffffffffffff82169050919050565b6000611711826116e6565b9050919050565b61172181611706565b82525050565b600060208201905061173c6000830184611718565b92915050565b600081519050919050565b600082825260208201905092915050565b60005b8381101561177c578082015181840152602081019050611761565b8381111561178b576000848401525b50505050565b6000601f19601f8301169050919050565b60006117ad82611742565b6117b7818561174d565b93506117c781856020860161175e565b6117d081611791565b840191505092915050565b600060208201905081810360008301526117f581846117a2565b905092915050565b6000604051905090565b600080fd5b600080fd5b600061181c826116e6565b9050919050565b61182c81611811565b811461183757600080fd5b50565b60008135905061184981611823565b92915050565b60006020828403121561186557611864611807565b5b60006118738482850161183a565b91505092915050565b6000819050919050565b61188f8161187c565b82525050565b60006020820190506118aa6000830184611886565b92915050565b6118b98161187c565b81146118c457600080fd5b50565b6000813590506118d6816118b0565b92915050565b6000602082840312156118f2576118f1611807565b5b6000611900848285016118c7565b91505092915050565b60008115159050919050565b61191e81611909565b82525050565b600060a082019050818103600083015261193e81886117a2565b905061194d6020830187611886565b61195a6040830186611886565b6119676060830185611915565b6119746080830184611718565b9695505050505050565b600080fd5b600080fd5b7f4e487b7100000000000000000000000000000000000000000000000000000000600052604160045260246000fd5b6119c082611791565b810181811067ffffffffffffffff821117156119df576119de611988565b5b80604052505050565b60006119f26117fd565b90506119fe82826119b7565b919050565b600067ffffffffffffffff821115611a1e57611a1d611988565b5b611a2782611791565b9050602081019050919050565b82818337600083830152505050565b6000611a56611a5184611a03565b6119e8565b905082815260208101848484011115611a7257611a71611983565b5b611a7d848285611a34565b509392505050565b600082601f830112611a9a57611a9961197e565b5b8135611aaa848260208601611a43565b91505092915050565b611abc81611706565b8114611ac757600080fd5b50565b600081359050611ad981611ab3565b92915050565b600080600060608486031215611af857611af7611807565b5b600084013567ffffffffffffffff811115611b1657611b1561180c565b5b611b2286828701611a85565b9350506020611b33868287016118c7565b9250506040611b4486828701611aca565b9150509250925092565b7f4e487b7100000000000000000000000000000000000000000000000000000000600052602160045260246000fd5b60038110611b8e57611b8d611b4e565b5b50565b6000819050611b9f82611b7d565b919050565b6000611baf82611b91565b9050919050565b611bbf81611ba4565b82525050565b6000602082019050611bda6000830184611bb6565b92915050565b6000602082019050611bf56000830184611915565b92915050565b600061016082019050611c11600083018e611718565b611c1e602083018d611886565b611c2b604083018c611886565b611c38606083018b611886565b611c45608083018a611886565b611c5260a0830189611886565b81810360c0830152611c6481886117a2565b905081810360e0830152611c7881876117a2565b9050611c88610100830186611bb6565b611c96610120830185611886565b818103610140830152611ca981846117a2565b90509c9b505050505050505050505050565b7f4e487b7100000000000000000000000000000000000000000000000000000000600052602260045260246000fd5b60006002820490506001821680611d0257607f821691505b60208210811415611d1657611d15611cbb565b5b50919050565b7f4f6e6c7920636f6e7472696275746f722063616e20766f746520210000000000600082015250565b6000611d52601b8361174d565b9150611d5d82611d1c565b602082019050919050565b60006020820190508181036000830152611d8181611d45565b9050919050565b7f596f7520616c726561647920766f746564202100000000000000000000000000600082015250565b6000611dbe60138361174d565b9150611dc982611d88565b602082019050919050565b60006020820190508181036000830152611ded81611db1565b9050919050565b7f4e487b7100000000000000000000000000000000000000000000000000000000600052601160045260246000fd5b6000611e2e8261187c565b9150611e398361187c565b9250827fffffffffffffffffffffffffffffffffffffffffffffffffffffffffffffffff03821115611e6e57611e6d611df4565b5b828201905092915050565b611e8281611811565b82525050565b6000604082019050611e9d6000830185611e79565b611eaa6020830184611886565b9392505050565b7f496e76616c696420737461746500000000000000000000000000000000000000600082015250565b6000611ee7600d8361174d565b9150611ef282611eb1565b602082019050919050565b60006020820190508181036000830152611f1681611eda565b9050919050565b7f446561646c696e65206861732070617373656420210000000000000000000000600082015250565b6000611f5360158361174d565b9150611f5e82611f1d565b602082019050919050565b60006020820190508181036000830152611f8281611f46565b9050919050565b7f436f6e747269627574696f6e20616d6f756e7420697320746f6f206c6f772021600082015250565b6000611fbf60208361174d565b9150611fca82611f89565b602082019050919050565b60006020820190508181036000830152611fee81611fb2565b9050919050565b7f54686520726563656976656420616d6f756e74206973206c657373207468616e60008201527f2074686520616d6f756e742073656e742e000000000000000000000000000000602082015250565b600061205160318361174d565b915061205c82611ff5565b604082019050919050565b6000602082019050818103600083015261208081612044565b9050919050565b60006120928261187c565b91507fffffffffffffffffffffffffffffffffffffffffffffffffffffffffffffffff8214156120c5576120c4611df4565b5b600182019050919050565b60006060820190506120e56000830186611e79565b6120f26020830185611886565b6120ff6040830184611886565b949350505050565b7f596f7520646f6e7420686176652061636365737320746f20706572666f726d2060008201527f74686973206f7065726174696f6e202100000000000000000000000000000000602082015250565b600061216360308361174d565b915061216e82612107565b604082019050919050565b6000602082019050818103600083015261219281612156565b9050919050565b7f5265717565737420616c726561647920636f6d706c6574656400000000000000600082015250565b60006121cf60198361174d565b91506121da82612199565b602082019050919050565b600060208201905081810360008301526121fe816121c2565b9050919050565b7f4e487b7100000000000000000000000000000000000000000000000000000000600052601260045260246000fd5b600061223f8261187c565b915061224a8361187c565b92508261225a57612259612205565b5b828204905092915050565b7f4174206c656173742035302520636f6e7472696275746f72206e65656420746f60008201527f20766f746520666f722074686973207265717565737400000000000000000000602082015250565b60006122c160368361174d565b91506122cc82612265565b604082019050919050565b600060208201905081810360008301526122f0816122b4565b9050919050565b60008190508160005260206000209050919050565b6000815461231981611cea565b612323818661174d565b9450600182166000811461233e576001811461235057612383565b60ff1983168652602086019350612383565b612359856122f7565b60005b8381101561237b5781548189015260018201915060208101905061235c565b808801955050505b50505092915050565b6000819050919050565b60006123b16123ac6123a7846116e6565b61238c565b6116e6565b9050919050565b60006123c382612396565b9050919050565b60006123d5826123b8565b9050919050565b6123e5816123ca565b82525050565b600060c0820190506124006000830189611886565b8181036020830152612412818861230c565b90506124216040830187611886565b61242e6060830186611886565b61243b6080830185611915565b61244860a08301846123dc565b979650505050505050565b6000819050919050565b600061247861247361246e84612453565b61238c565b61187c565b9050919050565b6124888161245d565b82525050565b600060c0820190506124a36000830189611886565b81810360208301526124b581886117a2565b90506124c46040830187611886565b6124d1606083018661247f565b6124de6080830185611915565b6124eb60a08301846123dc565b979650505050505050565b7f596f7520646f6e74206861766520616e7920636f6e747269627574656420616d60008201527f6f756e7420210000000000000000000000000000000000000000000000000000602082015250565b600061255260268361174d565b915061255d826124f6565b604082019050919050565b6000602082019050818103600083015261258181612545565b905091905056fea264697066735822122027139ca6554cdcb45b863bfdcf59c1bde52db20b2c8f30c3af02064da161b48964736f6c63430008090033",
  "linkReferences": {},
  "deployedLinkReferences": {}
}